:020000040800F2
:10000000E8ED002065010008951800087912000845
:1000100091180008371100081120000800000000A6
:100020000000000000000000000000006D1B000840
:100030003B11000800000000C11800082D1D000839
:100040007F0100087F0100087F0100087F01000890
:100050007F0100087F0100087F0100087F01000880
:100060007F0100087F0100087F0100087F01000870
:100070007F0100087F0100087F0100087F01000860
:100080007F0100087F0100087F0100087F01000850
:100090007F0100087F0100087F0100087F01000840
:1000A0007F010008A51D00087F0100087F010008EE
:1000B0007F0100087F0100087F0100087F01000820
:1000C0007F0100087F0100087F0100087F01000810
:1000D0007F0100087F010008551F0008A91F0008C4
:1000E0007F0100087F0100087F0100087F010008F0
:1000F0007F0100087F0100087F0100080000000068
:100100007F010008000000007F0100087F01000857
:10011000ED1E00087F0100087F0100087F01000834
:100120007F0100087F0100087F0100087F010008AF
:100130007F0100087F0100087F0100087F0100089F
:100140007F0100087F0100087F0100087F0100088F
:10015000DFF80CD000F0CAFD00480047D53F00088A
:10016000E8ED00200648804706480047FEE7FEE726
:10017000FEE7FEE7FEE7FEE7FEE7FEE7FEE7FEE757
:10018000351D0008510100082DE9F05F05460020EB
:1001900092469B4688460646814640241BE02846F8
:1001A00041464746224600F0F0FB53465A46C01AE5
:1001B000914110D311461846224600F0D7FB2D1A64
:1001C00067EB01084F4622460120002100F0CEFBDC
:1001D00017EB00094E41201EA4F10104DFDC484664
:1001E00031462A464346BDE8F09FA0F14101192956
:1001F00000D82030704740EA01039B0703D009E094
:1002000008C9121F08C0042AFAD203E011F8013B02
:1002100000F8013B521EF9D27047D2B201E000F85B
:10022000012B491EFBD270470022F6E710B513469A
:100230000A4604461946FFF7F0FF204610BD30B5C8
:1002400005462A460B4612F8010B13F8014B08B17C
:10025000A042F8D01CB1002802D06D1CF1E728465E
:1002600030BD421C10F8011B0029FBD1801A7047D9
:1002700010B5002200E0521C835C8C5CA34201D1CB
:10028000002BF8D1D8B2E1B2401A10BD034611F8E4
:10029000012B00F8012B002AF9D11846704730B520
:1002A00005460020034600E05B1C934205D2EC5C4F
:1002B000C85C201A01D1002CF6D130BD0FB400B5B6
:1002C0008DB010A909900B9000914FF0FF300A906B
:1002D00000200C9005480690054807906A4609A83A
:1002E0000F9900F07BFB0DB05DF814FBF9090008D5
:1002F000170A00082DE9FF4F087883B09946FF28B8
:1003000005D0491C2D2804D00024002008E000203E
:100310000BE00124F9E700EB800003EB4000491CEF
:100320000B78FF2BF7D104B14042002302931478DD
:1003300019461D462D2C01D02B2C04D1521C2D2CDE
:1003400013D000240294AA461478FF2C0FD00A255B
:10035000A3FB057801FB05814FF0000C03FB0C119A
:10036000521CE3194AEB0101EEE70124EAE781445C
:1003700053EA010002D019F5C87F06DA039800217C
:10038000C0E9001107B0BDE8F08F0025AE4E2F4642
:10039000DFF8B882184600F069FCCDE90001B9F138
:1003A000000002DAC9F1000400E004460023A74A75
:1003B0001AEB030B42EB045A12E0E00707D02A467F
:1003C00033463846414600F0ECF9074688462A464F
:1003D00033461046194600F0E4F905460E4664100F
:1003E000002CEAD1DDE90001B9F1000F5A4653466D
:1003F00006DA00F0CCFB3A46434600F0C8FB05E0C5
:1004000000F0CFF93A46434600F0CBF9029A0AB120
:1004100081F00041039AC2E90001B3E72DE9FF4FE3
:100420001F468DB0D7E901464FF0FF382E204546D4
:100430004FF000090B90B9696D1C0E988847396A16
:10044000824688470028F6D1BAF1FF3F0AD024F44B
:10045000D064002E11DDBAF12B0F08D0BAF12D0FA8
:100460000BD102E0404611B08DE744F48064B969D5
:100470006D1C0E9888478246761E6946600501D538
:100480002D2000E02B208DF8000001F1010B0DF173
:10049000200809E0B9696D1C0E98884782460F98BC
:1004A00044F40074761E0560002E02DDBAF1300FB0
:1004B000F0D00B998A453ED144F0800406E00F99B4
:1004C000681CA9F1010944F400740860B9696D1C45
:1004D000761E0E98884782463028F0D02BE00B9984
:1004E0008A4505D1200603D444F08004761E18E026
:1004F000504602F06BFB08B30DF11301761E44F475
:1005000000748B4508D2AAF130000BF8010B2006CD
:1005100007D5A9F1010003E0200602D409F101008A
:100520008146A00502D50F99681C0860B9696D1C49
:100530000E9888478246002ED1DC53E0002E51DD14
:10054000BAF1650F02D0BAF1450F4BD1A00549D5DC
:10055000B9696D1C24F44074761E0E988847824653
:10056000002E0CDD2B2804D0BAF12D0F07D144F456
:100570008074B9696D1C0E9888478246761EE00526
:1005800001D52D2100E02B2108F8011BCDF82C808E
:1005900021E00DF12901761E44F4007488450CD247
:1005A000AAF1300010F0FF0088F8000002D10B998A
:1005B000884509D908F1010806E0E00501D524487D
:1005C00001E042F20F708146B9696D1C0E988847B0
:1005D00082460F980560002E04DD504602F0F6FAC0
:1005E0000028D6D1F9690E988847FF208BF80000C3
:1005F00088F800000020069007904B466A4608A93C
:1006000006A8FFF777FEA00502D46FF001002AE7E5
:1006100014F0240F0AD0E00714D1DDE9061238687F
:10062000031D3B600068C0E900120BE0DDE9060134
:1006300000F040FB0146E00704D13868021D3A6033
:100640000068016028460EE7000014400000F03FFB
:10065000F1D8FFFF2DE9FE4F804681EA0300C00F6D
:100660000C46009021F0004123F00045B8EB020059
:10067000A94105D24046214690461C460B460246FB
:1006800023F00040104347D0270DC7F30A00C3F3FF
:100690000A510290401A019040286BDAC3F313000C
:1006A00040F4801B0098924620B10023D2EB030A4D
:1006B00063EB0B0B01985946C0F14002504600F025
:1006C00055F906460D4650465946019A00F06DF917
:1006D00010EB08006141002487EA115284EAE773B5
:1006E0001A4340D0009A62B3019A012A4FEA075296
:1006F00015DC001B61EB02014FF0004202EA0752D9
:10070000CDE90042001C41F5801132462B4600F035
:10071000F0F903B0BDE8F08F40462146F9E7001B31
:1007200061EB0201001C41F5801300185B412018A9
:10073000A2F5001747EB030140EAD570B6196D41E9
:1007400011E06D084FEA360645EAC0754FEA0752D8
:10075000001B61EB0201001C41F5801149084FEAC2
:1007600030000019514132462B4603B0BDE8F04F2E
:1007700000F0B0B90098012240000023D0EB020243
:1007800063EBE073009821464FEAE074B8EB000099
:1007900061EB0401E9E783F000435BE781F000418E
:1007A00058E72DE9FE4F81EA030404F0004421F0EC
:1007B000004100944FF0000B23F0004350EA010485
:1007C0005ED052EA03045BD0C3F30A54C1F30A5566
:1007D0002C44A4F2F3340194A0FB0254C1F313019E
:1007E00041F48011C3F3130343F4801301FB02446B
:1007F00000FB034E840A970A44EA815447EA835770
:10080000A4FB076802958D0A05FB07854FEA932C28
:1008100004FB0C542705029D4FEA065847EA163799
:10082000B5EB08056EEB070C870E920E47EA8117B1
:1008300042EA8312A7FB0201B6EB0B0164EB000452
:100840002B0D43EA0C335E1844EB1C50DA4651463C
:10085000E7FB0201C5F313044FEA0B3343EA1453D9
:100860004FEA0432019C43EA0603A4F10C0402940B
:10087000009CCDE900B400F03CF903B0BDE8F08F76
:1008800000200146F9E70EB540F233410291002104
:10089000CDE900110A460B4600F02BF903B000BD6C
:1008A00070B5C1F30A5201F000450024C1F31301F1
:1008B00040F2FF3341F480119A4201DA002070BD0A
:1008C00040F233439A42A2F2334203DC524200F038
:1008D0005CF800E090402C43F1D0404270BD000035
:1008E00030B5041E71F1000404DB4FF000444042B7
:1008F00064EB0101141E73F1000405DB1C464FF08C
:100900000043524263EB04038B4208BF824230BD76
:1009100030B5041E71F1000404DB4FF00044404286
:1009200064EB0101141E73F1000405DB1C464FF05B
:100930000043524263EB0403994208BF904230BD2A
:1009400030B50B46014600202022012409E021FA9F
:1009500002F59D4205D303FA02F5491B04FA02F59C
:100960002844151EA2F10102F1DC30BD202A04DB6F
:10097000203A00FA02F1002070479140C2F12003B2
:1009800020FA03F3194390407047202A04DB203AF1
:1009900021FA02F00021704721FA02F3D040C2F19F
:1009A00020029140084319467047202A06DBCB17E6
:1009B000203A41FA02F043EAE07306E041FA02F31A
:1009C000D040C2F120029140084319467047000010
:1009D000026811441378016018467047D1600449D9
:1009E00051610449116200211161114600F096B96C
:1009F000D1090008110D0008426842B1016811F8E0
:100A0000013B23B1521EC0E9001218467047012174
:100A1000C160881E704742685AB1C368016843B913
:100A200083688B4205D0491E521CC0E90012002089
:100A300070474FF0FF3070470FB4002300B589B006
:100A40000CA900910B996FF00042CB601E4B0693EE
:100A50001E4B07930423CDE901321D4A089202463A
:100A60006B460020FFF7DAFC09B05DF814FB70B5A7
:100A700086B006464FF0FF300091CDE9010100201D
:100A800015460C4604903246694604A8FFF7D4FF89
:100A900002460498211825B108B1084600E0204616
:100AA0002860049800280DD0002A02DD00988842B2
:100AB00008D0081B0094CDE901043246694604A819
:100AC000FFF7BAFF06B070BDF9090008170A000861
:100AD000110D000810B5141E73F1000408DA401C53
:100AE00041F1000192185B411A4301D120F001004D
:100AF00010BD2DE9F04D92469B4611B1B1FA81F23D
:100B000002E0B0FA80F220329046FFF72FFF044651
:100B10000F4640EA0A0041EA0B0153465A46084391
:100B200013D0114653EA010019D0C8F140025046D3
:100B3000FFF72BFF05460E46504659464246FFF743
:100B400015FF084305D0012004E020463946BDE8E2
:100B5000F08D0020054346EAE0762C4337430A989F
:100B60006305E40AA0EB08000022FD0A44EA4754AA
:100B70000A3002D500200146E9E701051019694154
:100B8000DDE9084500196941BDE8F04DA2E72DE90E
:100B9000F04D81EA030404F0004B21F000451446B7
:100BA0004FF0000A23F0004150EA050220D054EA39
:100BB00001021DD0C5F30A570246C5F31303C1F362
:100BC0001300C1F30A5640F4801543F48013A7EBD9
:100BD0000608101BD64608F2FD3873EB050002D359
:100BE00008F1010801E092185B41B8F1000F03DA47
:100BF00000200146BDE8F08D00204FF4801106462C
:100C000084460EE0171B73EB050705D3121B63EB3D
:100C1000050306434CEA010C49084FEA30009218DC
:100C20005B4150EA0107EDD152EA030012D082EA9B
:100C3000040083EA0501084305D0101BAB4106D22E
:100C40000122002306E000224FF0004302E06FF093
:100C5000010253101AEB06004CEB085110EB0A008E
:100C600041EB0B01BDE8F04DFFF734BF0EB540F28C
:100C7000334202920022CDE900221346FFF739FFEA
:100C800003B000BDC1F30A52C1F3130140F2FF33B8
:100C900041F480119A4202DA00200146704740F286
:100CA00033439A42A2F2334202DC5242FFF76DBE56
:100CB000FFF75CBE01F0004330B421F0004150EA80
:100CC000010206D00A0DA2F56072C1F31301002AD9
:100CD00002DC30BC00207047440F44EAC104C1006C
:100CE000E01830BC00EBC25000F0AEB9064C074D26
:100CF00006E0E06840F0010394E8070098471034EC
:100D0000AC42F6D3FFF728FAF05C0008105D00084B
:100D1000C0B24FF4F05100F0CFB900002DE9F34F0D
:100D20008BB04FF0000801F10C000C464FF0010BA6
:100D300046460DF1080A0190626901210198904729
:100D4000051E2DD0252D2CD0216A8847C0B162699F
:100D5000012101989047216A88470028F7D1411E58
:100D600062690198904700E0761CA1690B9888475A
:100D7000216A88470028F7D1E1690B988847DBE7AB
:100D8000A1690B9888470746A84201D1761CD3E792
:100D9000E1690B9888477F1C02D1B8F1000F6FD032
:100DA00046E1002762693D463946019890472A2866
:100DB00004D162690121019890470125DFF88492EE
:100DC0006269012101989047A0F130010A290AD2F5
:100DD0004F45E5DC07EB870100EB4107303FDFD4EF
:100DE00045F01005ECE7E90601D46FF000476C28E8
:100DF0000AD04C2814D0682815D06A280DD0742841
:100E00001CD07A281AD01DE0626901210198904710
:100E10006C2802D045F0040514E045F002050DE011
:100E200045F020050AE06269012101989047682891
:100E300002D045F0080505E045F40065626901212E
:100E400001989047C4E9015765283DD019DC58281E
:100E50007AD00CDC452837D004DC252826D0412860
:100E600031D131E046282FD047282CD12CE05B2807
:100E700077D0612828D063287CD0642823D15AE019
:100E8000D0E06F2848D008DC66281DD067281BD02A
:100E9000692821D06E2816D127E0702845D0732804
:100EA00068D0752847D078280DD14DE0A1690B98FE
:100EB0008847054625283FF469AFE1690B988847C4
:100EC0006D1C3FF46AAFB3E023466A466FF0010041
:100ED0000B99FFF7A3FA9EE045F040006060A80779
:100EE00023464FF0000236D43EE0E8077FF447AFD8
:100EF0002068011D21600068290501D506701BE7E7
:100F0000290701D5068017E7A90703D5F117C0E91E
:100F1000006111E706600FE745F040006060A80738
:100F200023464FF0080216D41EE040F60E0125EAD3
:100F30000100606016E045F040006060A8072346AD
:100F40004FF00A0207D40FE045F040006060A807A8
:100F500008D5234610226FF001000B99AFF30080F3
:100F600059E007E0234610226FF001000B99AFF320
:100F7000008050E04FF000094F464B46632802D0F6
:100F80005B2806D040E0E80601D40120A0600127DC
:100F90003AE062690121019890475E2805D14FF03F
:100FA00001096269494601989047216939B90021D0
:100FB0000A46534643F82120491C0829FADBB0B3FE
:100FC000216969B9C11700EBD16253110AEB8301A2
:100FD00022F01F02821A01200B68904003430B602D
:100FE00062690121019890475D28E8D1B9F1000FAD
:100FF00009D00020514651F82020D24341F820204A
:10100000401C0828F7DB02AB224600976FF0010076
:101010000B99AFF3008000280CDA401C08D1BBF11B
:10102000000F05D04FF0FF300DB0BDE8F08FFFE7A7
:101030004046F9E7E90701D108F1010806444FF0FD
:10104000000B79E6CCCCCC0C0029A8BF7047401C23
:10105000490008BF20F00100704710B4B0FA80FCCE
:1010600000FA0CF050EA010404BF10BC704749B10B
:10107000CCF1200421FA04F411FA0CF118BF01217B
:1010800021430843A3EB0C01CB1D4FEA00614FEA5B
:10109000102042BF002010BC704700EBC35010442A
:1010A0000029A4BF10BC7047401C490008BF20F0B5
:1010B000010010BC704700007F2801D9002208E021
:1010C000064A02EB5002C007127800D1120902F062
:1010D0000F0201209040084070470000B05C0008FB
:1010E00070B58C1810F8015B15F0070301D110F8EA
:1010F000013B2A1106D110F8012B03E010F8016B17
:1011000001F8016B5B1EF9D12B0705D40023521E99
:101110000DD401F8013BFAE710F8013BCB1A921C01
:1011200003E013F8015B01F8015B521EF9D5A142FF
:10113000D8D3002070BD00BFFEE7704738B52D48FA
:101140000078401CC0B28DF800002A484078401C4E
:10115000C0B28DF8010027488078401CC0B28DF8DD
:1011600002002448C078401CC0B28DF803006A46D3
:101170000C21002001F070FB01220021084601F043
:101180002BFB01221146002001F026FB0321002049
:1011900000F062FC132806D010220121002001F08B
:1011A0001BFB002038BD04220121002001F014FBAC
:1011B00000BF00240221002000F04EFC044624B1B0
:1011C00022460221002001F007FB04F00800082855
:1011D00001D10020E6E70621002000F03DFCFF28B9
:1011E00006D010220121002001F0F6FAFF20D9E7F5
:1011F000DFE700009E00002001460888704730B5F8
:1012000003460C461546002207E003EB4200FFF7B9
:10121000F3FF24F81200501C82B2AA42F5DB30BD65
:101220002DE9F04705460F461646A5F100694FEA3D
:10123000D9284FF0006000EBC82AB5F1006F04D345
:1012400005EB4600B0F1016F01D3BDE8F08702F075
:10125000BFFC504602F058FD002407E037F8141098
:1012600005EB440002F0F0FC601C84B2B442F5DBF4
:1012700002F07AFC00BFE8E700BFFEE7C020564955
:101280000870A820487001208870C870FF2053495A
:101290000870487088700020C8700C205049087091
:1012A00029204870AB2088704E48007AC8704D489D
:1012B000007908714B48007848714B4800784B49D9
:1012C00008704948807848704748007988704648D7
:1012D0008079C870C02046490870A8204870012055
:1012E00088708020C870C02042490870A8204870CB
:1012F00001208870BE20C870C0203F490870A82017
:10130000487001208870BE20C870C0203B4908701A
:10131000A820487001208870BE20C870C0203849BD
:101320000870A820487001208870BE20C870C020B6
:1013300034490870A820487001208870BE20C87009
:10134000012031490870F620487013202F49087099
:101350008920487013202E4908708A204870132075
:101360002C4908708B20487013202B4908708C2062
:1013700048701320294908708D2048702220284980
:101380000870C320487017202649087071204870E3
:1013900017202549087072204870172023490870CB
:1013A0007320487017202249087074204870172055
:1013B000204908707520487001201F4908700020DE
:1013C0001E4908701E4908701E4908701E490870A1
:1013D0001E49087070470000900000209400002013
:1013E00098000020840100203C0100209E00002085
:1013F000B2000020B6000020BA000020BE0000208D
:10140000C2000020C6000020A2000020A40000208E
:10141000A6000020A8000020AA000020AC000020A8
:10142000D2000020D4000020D6000020D8000020E8
:10143000DA000020DC000020E8000020E9000020A5
:10144000EA000020EB000020EC000020ED0000206E
:1014500010B55348406852490968884237D050480F
:1014600041684068401C4E4A506002F10900415CEE
:101470004C4802880088401C4A4B18804A488154D6
:1014800018460088B0F5FA7F02D10020194608807E
:1014900043484068B0F5FA7F02D1002040494860D7
:1014A00040480088022812DD3E480088401E3E4920
:1014B000085C0D2805D03B480088401E085C0A28BF
:1014C00005D1002037490880012038490870374885
:1014D0000078002861D036A13348FEF7B0FE36A16F
:1014E0003148FEF7ACFE3548007806280CD134A10F
:1014F0002D48FEF7A4FE38B107203049087000F0EF
:10150000B9F90020294908702BA12748FEF797FE5A
:101510002BA12548FEF793FE2BA12348FEF78FFE53
:101520002BA12148FEF78BFE2BA11F48FEF787FE5B
:1015300010B101202C4908702CA11B48FEF77FFE3A
:1015400038B10020284908702C49087001201B4937
:1015500008702BA11448FEF772FE58B1C8212B4821
:10156000FEF762FE104923312848FEF78FFE274818
:1015700004F0B6F926A10C48FEF761FE20B10A4836
:10158000007B303825490870C8212048FEF74CFE02
:1015900000F070F9002005490870002010BD00001F
:1015A000901D002056010020901F002058010020AF
:1015B0002B5A5245414459004F4B00005201002024
:1015C0004552524F520000002B4353513A00000045
:1015D0002B435245473A00002B5A4950535441542B
:1015E0003A20312C310000004E0100202B5A495086
:1015F000535441543A20312C300000005301002054
:101600002B5A4950524543560000000084210020C7
:101610002B5A4950535441540000000059010020F6
:1016200010B553480078002870D15248007800283F
:101630006CD051480078092866D2DFE800F0050E2A
:101640001A26323E47575E004B480078401C4A49F4
:10165000087000204749087057E048A001F04CF995
:1016600000204449087044480078401C42490870F2
:101670004BE045A001F040F900203E4908703E488B
:101680000078401C3C4908703FE042A001F034F96A
:1016900000203849087038480078401C36490870E6
:1016A00033E040A001F028F90020324908703248A8
:1016B0000078401C3049087027E000202D49087050
:1016C0002D480078401C2C4908701EE039480078ED
:1016D00018B139A001F010F902E041A001F00CF9B5
:1016E000002024490870484908700EE047A001F026
:1016F00003F900202049087007E044A001F0FCF83D
:1017000000201D49087000E000BF00BF18480078A5
:1017100000282BD03C480078032827DA15480078A9
:1017200020B339480078401C3749087008460078D3
:10173000012804D0022806D0032812D10AE037A0DD
:1017400001F0DAF80EE03CA13D4803F05FFD00F047
:1017500079F807E038A13A4803F058FD00F072F834
:1017600000E000BF00BF00200249087010BD00006B
:101770004E010020530100205201002041542B490A
:1017800050523F0D0A00000041542B4350494E3F38
:101790000D0A000041545E535953494E464F0D0AFD
:1017A0000000000041542B5A495043414C4C3D31FC
:1017B0000D0A00005101002041542B5A49504F504E
:1017C000454E3D312C302C3130332E34362E3132D3
:1017D000382E34352C34313734300D0A00000000F7
:1017E00041542B5A49504F50454E3D312C302C34EA
:1017F000372E3131312E3131322E33302C313030E1
:1018000038370D0A000000005401002041542B5AC3
:10181000495043414C4C3D300D0A000041542B5A75
:101820004950414C4956453D312C312C3330302CF8
:1018300037352C390D0A0000636F6E6E65637400D6
:10184000A819002010B50448007818B1034904A075
:1018500001F052F810BD00004E010020A819002030
:1018600041542B5A495053454E443D312C25730D5C
:101870000A00000010B50020034908804FF4FA71F7
:101880000248FEF7D1FC10BD56010020901F002039
:1018900000BFFEE77047000010B5002807DA0A070E
:1018A000140E054A00F00F031B1FD45403E00A076F
:1018B000130E024A135410BD18ED00E000E400E0DE
:1018C0007047000070B504460449204600F008F84F
:1018D0000546024804F004F870BD0000BC02002078
:1018E0002DE9F04780460D462621404600F0DEF8FF
:1018F000064616B90020BDE8F08740F2B450864293
:1019000000DD06462821404600F0D0F80746B946DB
:10191000C7F30A074FF480513B4802F0C2FA384639
:1019200000F016F9182101EB4811C8B200F0F4F8E4
:10193000364803F044FC00F0FF0AB819B0F5006F18
:1019400011DA00240CE0002000F0E6F82F4803F044
:1019500036FC00F0FF0A85F800A06D1C601C84B204
:10196000B442F0DB3BE0C7F5006087B200240CE036
:10197000002000F0D1F8254803F021FC00F0FF0A18
:1019800085F800A06D1C601C84B2BC42F0DB4FF4F3
:1019900080511D4802F087FA4FF480511A4802F036
:1019A00080FA002000F0D4F8182101EB4811C8B2E9
:1019B00000F0B2F8154803F002FC00F0FF0A0CE05A
:1019C000002000F0A9F8114803F0F9FB00F0FF0A2D
:1019D00085F800A06D1C601C84B2B442F0DB4FF4AB
:1019E0008051094802F05FFA09EB06001FFA80F9FE
:1019F0004A462821404600F00FFF40220121404680
:101A000000F0EAFE304676E7000C01400038004066
:101A100070B504464FF480510D4802F042FA20465A
:101A200000F096F8012000F077F80A4803F0C7FBB1
:101A3000C5B2002000F070F8064803F0C0FBC5B244
:101A40004FF48051024802F02EFA284670BD000083
:101A5000000C01400038004070B504460D464FF4BC
:101A60008051104802F01DFA284600F071F8082154
:101A700001EB4411C9B241F0010000F04DF80A48F1
:101A800003F09DFBC6B2002000F046F8064803F0C4
:101A900096FBC6B24FF48051024802F004FA304679
:101AA00070BD0000000C01400038004070B50546D4
:101AB0000E464FF48051164802F0F3F9304600F01C
:101AC00047F8082101EB4511C9B241F0020000F0CE
:101AD00023F8104803F073FB0446002000F01CF8C4
:101AE0000C4803F06CFB0446002000F015F84FF69C
:101AF000FF7000EA0424074803F061FB204484B22D
:101B00004FF48051024802F0CEF9204670BD00002B
:101B1000000C01400038004010B5044600BF02210F
:101B20000A4803F052FB0028F9D02146074803F089
:101B30004AFB00BF0121054803F047FB0028F9D00C
:101B4000024803F03CFBC0B210BD0000003800406A
:101B500070B504462546E11704EB1161C1F3072077
:101B6000FFF7DAFFE0B2FFF7D7FF70BD704710B59F
:101B7000044601220021204600F02EFE01221146DB
:101B8000204600F029FE03212046FFF765FF1328B9
:101B900006D010220121204600F01EFE002010BDBC
:101BA00004220121204600F017FEFF20F7E7000085
:101BB00010B5044640F2B4521221002000F02CFE71
:101BC000082C58D2DFE804F0041E29343F4A555649
:101BD0002A484178007801EB002082B204210020DD
:101BE00000F01AFE26484178007801EB002082B20E
:101BF0001021002000F010FE224A0C21002000F0ED
:101C00002BFE39E020484178007801EB002082B2B9
:101C10000421012000F000FE2EE01C4841780078ED
:101C200001EB002082B20421022000F0F5FD23E048
:101C300017484178007801EB002082B2042103208C
:101C400000F0EAFD18E013484178007801EB00202D
:101C500082B20421084600F0DFFD0DE00E48417815
:101C6000007801EB002082B20421052000F0D4FDB1
:101C700002E001E000E000BF00BF10BDA2000020B4
:101C8000D2000020B2000020A4000020A600002006
:101C9000A8000020AA000020AC00002010B50446D7
:101CA00001220021204600F097FD01221146204626
:101CB00000F092FD03212046FFF7CEFE132806D048
:101CC00010220121204600F087FD002010BD0222D5
:101CD0000121204600F080FD03212046FFF7BCFED5
:101CE000142806D010220121204600F075FD0020A6
:101CF000ECE7FF20EAE710B5044602220021204667
:101D000000F06AFD01221146204600F065FD032126
:101D10002046FFF7A1FE222806D0102201212046EE
:101D200000F05AFD002010BDFF20FCE710B501F0C7
:101D300055FE10BD08B51848006840F470001649FB
:101D400008601648006840F0010014490860084621
:101D5000406840F0800048600020009002E0009859
:101D6000401C009044F6206100988842F7D3002080
:101D70000A494860C862084600680949084007499E
:101D800008604FF47F0088600846006820F48020D7
:101D9000086003F013FB08BD88ED00E0001002406E
:101DA000FFFFF6EA10B501213E4803F07BFC002856
:101DB00077D001213B4803F071FC3B480068401C90
:101DC0003949086039480068401C3849086038487B
:101DD0000068401C3649086033480068B0F5FA6F67
:101DE00005D10020304908600120324908702F4891
:101DF0000068142805D100202C49086001202E49D4
:101E000008702B48006840F6B831884205D10020A0
:101E100027490860012029490870294800780128CD
:101E200004D128480068401C2649086025480068FD
:101E3000322809D10020244908802149087021490D
:101E4000086001202149087021480078012804D148
:101E500020480068401C1F4908601E48006832285E
:101E600009D100201C4908801949087019490860E7
:101E700001201A4908701A48007838B919480078C2
:101E800020B919480068401C1749086016480068C6
:101E9000B0F5FA6F05D101201249087000201249EF
:101EA000086010BD002C0140780000207C0000205C
:101EB0008000002066000020650000205301002003
:101EC000680000206C00002046010020690000200E
:101ED00074000020700000205E01002075000020CA
:101EE00061010020600100208400002010B512492B
:101EF000124803F0CEFDC8B1104803F057FDC1B23F
:101F00000F4802880088401C0D4B18800D488154F2
:101F100018460088B0F5FA7F02D1002019460880E3
:101F20000120094908700020084908600849034851
:101F300003F0AFFD10BD000005030500004C00409C
:101F4000460100201C170020680000206C000020C3
:101F50000703070010B51049104803F09AFDB0B10F
:101F60000E4803F023FDC1B20D4802680068401C12
:101F70000B4B186003F109008154012019460872C7
:101F800008460068B0F5FA7F01D1002008600549D5
:101F9000024803F07EFD10BD05030500004400402B
:101FA000901D00200703070010B51249124803F0E6
:101FB00070FDC8B1104803F0F9FCC1B20F480288A7
:101FC0000088401C0D4B18800D488154184600882D
:101FD000B0F5FA7F02D10020194608800120094996
:101FE00008700020084908600849034803F051FDC3
:101FF00010BD000005030500004800405E01002000
:10200000BA2200207400002070000020070307009F
:1020100000BFFEE700B587B040F2036003F036F87A
:1020200040F20E7003F032F84FF4204303221821DF
:10203000184801F03AFF4FF4804303220421154869
:1020400001F033FF4FF4805303221021114801F0B7
:102050002CFF4FF480510F4801F025FF0020019024
:102060004FF4827000900020029005904FF40070B1
:10207000039010200690002004906946064803F063
:10208000ACF80721044803F08FF8034803F092F8F6
:1020900007B000BD000C01400038004010B500241E
:1020A0008021002000F064FB04221649012000F08A
:1020B000FFFB04221449052000F0FAFB0622134915
:1020C000092000F0F5FB042211490F2000F0F0FB7D
:1020D00000BF0BE002221E21204600F07DFB022201
:1020E0001F21204600F078FB601CC4B2082CF1DBF5
:1020F0004FF4FA61192000F055FB08211B2000F075
:1021000037FB10BD900000209400002098000020B4
:102110009E00002010B5FFF7C1FFFFF70FF8002069
:10212000FFF746FD0120FFF743FD0220FFF740FDCA
:102130000320FFF73DFD0420FFF73AFD0520FFF7E0
:1021400037FD10BD70B500BF1720FFF761FC0546D5
:1021500005F0010000283DD002210020FFF77CFCA3
:10216000044622460221002000F036FB04F0010064
:1021700028B11B48007840F002001949087004F0AB
:10218000020050B110220121002000F025FB0020A8
:10219000FFF70EFD00201249087004F0100028B16E
:1021A0001048007840F002000E49087004F0040066
:1021B00028B10C48007840F001000A49087004F08A
:1021C000080038B110220121002000F005FB00209A
:1021D000034908701720FFF71BFC00B1B4E770BD7E
:1021E000F0000020F800002010B590480078F8B901
:1021F0008F48007860B90020FFF750FDFF2803D119
:1022000001208A49087020E00020884908701CE0FD
:102210008748007801280CD10020FFF7A8FCFF2890
:1022200003D10120814908700FE000207F49087028
:102230000BE00020FFF75FFDFF2803D103207B495F
:10224000087002E00020794908707A48007838BBAD
:102250007948007860B90120FFF720FDFF2803D1FD
:102260000120744908701FE00020724908701BE0CB
:102270007148007801280BD1FFF779FCFF2803D1C2
:1022800001206C4908700FE000206A4908700BE0DB
:102290000120FFF730FDFF2803D1032065490870B6
:1022A00002E000206349087064480078F8B9644887
:1022B000007860B90220FFF7F1FCFF2803D101206C
:1022C0005E49087020E000205C4908701CE05C4812
:1022D000007801280CD10220FFF749FCFF2803D128
:1022E0000120564908700FE00020544908700BE0A7
:1022F0000220FFF700FDFF2803D103204F4908709B
:1023000002E000204D4908704E480078F8B94E4868
:10231000007860B90320FFF7C1FCFF2803D101203A
:102320004849087020E00020464908701CE04648F3
:10233000007801280CD10320FFF719FCFF2803D1F6
:102340000120404908700FE000203E4908700BE072
:102350000320FFF7D0FCFF2803D103203949087080
:1023600002E000203749087038480078F8B938484A
:10237000007860B90420FFF791FCFF2803D1012009
:102380003249087020E00020304908701CE03048D5
:10239000007801280CD10420FFF7E9FBFF2803D1C6
:1023A00001202A4908700FE00020284908700BE03E
:1023B0000420FFF7A0FCFF2803D103202349087065
:1023C00002E000202149087022480078F8B922482C
:1023D000007860B90520FFF761FCFF2803D10120D8
:1023E0001C49087020E000201A4908701CE01A48B7
:1023F000007801280CD10520FFF7B9FBFF2803D195
:102400000120144908700FE00020124908700BE009
:102410000520FFF770FCFF2803D103200D49087049
:1024200002E000200B49087010BD0000F000002001
:10243000E8000020F1000020E9000020F200002068
:10244000EA000020F3000020EB000020F400002050
:10245000EC000020F5000020ED00002010B5002465
:10246000FFF7C2FEFFF76EFE6E48007800F0010035
:1024700098B16C48007820F001006A49087000208B
:10248000FFF720FA68480078032806D165480078ED
:1024900020F002006349087000BF6448007800F033
:1024A000010008B36148007820F001005F4908701E
:1024B0000120FFF707FA5E480078032814D15B4833
:1024C000007820F00200594908705A48407A1328D1
:1024D00003D15848807AF82806D004F1090082B266
:1024E0005549012000F0BAF85448007800F0010086
:1024F00008B35248007820F00100504908700220CB
:10250000FFF7E0F94E480078032814D14B480078D3
:1025100020F00200494908704648407A132803D148
:102520004448807AF82806D004F1090082B2424972
:10253000022000F093F84348007800F0010008B34F
:102540004048007820F001003E4908700320FFF762
:10255000B9F93D480078032814D13A48007820F0B2
:102560000200384908703348407A132803D13148B3
:10257000807AF82806D004F1090082B22E4903209F
:1025800000F06CF83148007800F0010008B32F48E3
:10259000007820F001002D4908700420FFF792F91F
:1025A0002B480078032814D12848007820F0020036
:1025B000264908701F48407A132803D11D48807AA5
:1025C000F82806D004F1090082B21B49042000F06B
:1025D00045F82048007800F0010008B31D48007855
:1025E00020F001001B4908700520FFF76BF91A481D
:1025F0000078032814D11748007820F0020015490C
:1026000008700C48407A132803D10A48807AF828C9
:1026100006D004F1090082B20749052000F01EF837
:1026200010BD0000F8000020F0000020F90000209C
:10263000F1000020BC020020BC0A0020FA000020AB
:10264000F2000020FB000020F3000020FC0000202E
:10265000F4000020FD000020F50000202DE9F047E7
:1026600007460D46904600213846FFF7F5F900F081
:102670000F0022280ED03B4A0C21384600F0ECF81F
:1026800039484178007801EB002082B210213846A9
:1026900000F0C2F824213846FFF708FA0646B14692
:1026A000C6F30A064FF48051304801F0FAFB304679
:1026B000FFF74EFA102101EB4711C9B241F00400B7
:1026C000FFF72AFA06EB0800B0F5006F0ADA0024DB
:1026D00005E015F8010BFFF71FFA601C84B24445B2
:1026E000F7DB2AE0C6F5006086B2002405E015F8A5
:1026F000010BFFF711FA601C84B2B442F7DB4FF410
:1027000080511A4801F0CFFB4FF48051174801F077
:10271000C8FB0020FFF71CFA102101EB4711C9B2DA
:1027200041F00400FFF7F8F905E015F8010BFFF799
:10273000F3F9601C84B24445F7DB4FF480510B4839
:1027400001F0B1FB09EB08001FFA80F94A46242189
:10275000384600F061F820220121384600F03CF8AC
:10276000BDE8F087E2000020E6000020000C0140F8
:1027700070B505460C464FF48051094801F091FBB5
:102780002846FFF7E5F90520FFF7C6F92046FFF7D1
:10279000C3F94FF48051024801F085FB70BD000081
:1027A000000C014070B505460C464FF480510948B5
:1027B00001F077FB2846FFF7CBF90620FFF7ACF9CD
:1027C0002046FFF7C5F94FF48051024801F06BFB3A
:1027D00070BD0000000C014070B504460D46164661
:1027E0004FF480510B4801F05CFB2846FFF7B0F92D
:1027F000082101EB4411C9B241F00500FFF78CF943
:102800003046FFF789F94FF48051024801F04BFB45
:1028100070BD0000000C014070B504460D46164620
:102820004FF480510B4801F03CFB2846FFF790F92C
:10283000082101EB4411C9B241F00600FFF76CF921
:102840003046FFF785F94FF48051024801F02BFB29
:1028500070BD0000000C014070B505460E461446E0
:102860004FF48051114801F01CFB3046FFF770F91E
:10287000082101EB4511C9B241F00700FFF74CF9FF
:1028800014F8010BFFF748F914F8010BFFF744F9AE
:1028900014F8010BFFF740F914F8010BFFF73CF9AE
:1028A0004FF48051014801F0FEFA70BD000C014068
:1028B0002DE9F04107460C4615464FF480510D486E
:1028C00001F0EFFA3846FFF743F90420FFF724F947
:1028D000002605E014F8010BFFF71EF9701C86B204
:1028E000AE42F7DB4FF48051024801F0DCFABDE85C
:1028F000F0810000000C01400FB4054B10B503A996
:10290000044A029800F06AF910BC5DF814FB00005C
:10291000F53D0008780100200FB4084B10B504A95C
:1029200002AA039800F05AF9044602A9002000F018
:10293000ECFC204610BC5DF814FB00000B330008D3
:1029400030B528B1144C031F002021680A4605E069
:10295000084630BD9A4203D810465268002AF9D181
:10296000002800D041680BD00468A3EB0005A54205
:1029700004D11B681C440346046002E0436000E08D
:1029800023603AB11C68D51AA54203D115682C44BE
:102990001C6052685A6030BD7C0100202DED020B96
:1029A000019820F0004001909DED000B02B07047AF
:1029B00000B583B09FED060B0A4601468DED000B76
:1029C0006846FEF754F89DED000B03B000BD000013
:1029D00000000000000000002DE9F04782460F4C87
:1029E00010480D4E0E4F001B4FF0000820F0070559
:1029F0004FF0010900221146504601F0B5FA0028B7
:102A000002D1306810B10020BDE8F0873C60C4E915
:102A10000058C6F80090EDE780010020EC2300206C
:102A20007C010020E8EB002002E008C8121F08C16A
:102A3000002AFAD170477047002001E001C1121F3F
:102A4000002AFBD1704700002DE9FF5F82B0002112
:102A5000DDE90430020DDDF840B0034318D044F640
:102A60001050A2F2FF3242431514119801281FD0D2
:102A7000A5EB0B00401C5FEA000A4FF000064E4F2A
:102A8000DFF83891B046504615D5CAF1000413E07E
:102A9000119801244AA3012801D16FEA0B01029881
:102AA000119AC0E90031C0E9024206B0BDE8F09FCA
:102AB000CBF10000DFE704460021404A491842EB11
:102AC0000450CDE9001012E0E00707D032463B4643
:102AD00040464946FDF765FE8046894632463B46FC
:102AE00010461946FDF75DFE06460F466410002CA1
:102AF000EAD1DDE90401DDE90023BAF1000F06DACD
:102B0000FDF74FFE42464B46FDF74BFE05E0FEF754
:102B10003EF842464B46FEF73AF804460E4600227F
:102B2000284BFDF7F5FE03D84FF0FF30014607E0D4
:102B30000022254B20463146FDF78CFDFEF7A2F81A
:102B4000102409E0002C0ADB0A220023FDF71CFBFD
:102B5000039B30321A55641E50EA0102F2D1641C04
:102B6000039AC4F111031444119A012A03D00122DB
:102B700008430DD10AE0084304D000204FF0110BA8
:102B8000119072E7A3EB0B056D1E0DE05B4504DDB4
:102B90004FF0000205F1010504E003DA4FF00002F6
:102BA000A5F10105002AECD002981199C0E9023183
:102BB000C0E9004579E70000000014400000F03F44
:102BC000300000000000F0430000E03F30380A28E9
:102BD00001D2012070470020704700002DE9FF4F0F
:102BE00095B09B468946064600250FE2252877D1F9
:102BF00000242746F84A0121059400E0044316F812
:102C0000013F203B01FA03F01042F7D130782A2827
:102C100011D06FF02F033078A0F13002092A16D8B6
:102C2000059A44F0020402EB820203EB42021044D4
:102C3000761C0590EFE759F8042B0592002A03DA79
:102C4000504244F40054059044F00204761C30785D
:102C50002E2816D116F8010F44F004042A280DD0AE
:102C60006FF02F023078A0F13003092B09D807EB61
:102C7000870302EB4303C718761CF3E759F8047B7C
:102C8000761C30786C280FD006DC4C2817D06828CA
:102C90000DD06A2814D104E0742810D07A280FD1FE
:102CA0000DE044F400140AE044F4801401E044F41C
:102CB00040147278824202D104F58014761C761C8E
:102CC000307866280BD013DC582877D009DC002830
:102CD00075D04528F6D04628F4D047281AD19DE172
:102CE00018E0632835D0642879D0652812D195E1A1
:102CF000702873D008DC6728F1D069286FD06E285F
:102D00000DD06F2806D1B5E073282CD0752875D06A
:102D1000782874D05A46179990476D1C75E1C4F312
:102D20000250022809D003280DD0D9F80010042839
:102D30000DD00D6009F1040967E1D9F80010EA1718
:102D4000C1E90052F6E7D9F800100D80F2E70D70E6
:102D5000F0E719F8041B8DF8001000208DF8010031
:102D6000EA46012003E059F804AB4FF0FF30610759
:102D70004FF0000102D40DE008F101018846B9428C
:102D80000FDA8045F8DB1AF808100029F4D108E0C2
:102D900008F1010188468142FADB1AF8081000297F
:102DA000F6D105985B46A0EB080721463846179AEE
:102DB00000F094FA284400EB080507E04DE029E113
:102DC0000DE01AF8010B5A4617999047B8F101081F
:102DD000F7D25B4621463846179A13E142E00A22B1
:102DE0000092C4F302524FF0000A022A08D059F8A8
:102DF00004CB032A4FEAEC710AD00DE029E02AE067
:102E000009F1070121F00702F2E802C1914609E049
:102E10000FFA8CFC4FEAEC71042A03D14FFA8CFCB8
:102E20004FEAEC71002907DA0A460021DCF1000CB8
:102E300061EB02012D2202E0220504D52B228DF840
:102E40000420012203E0E20701D02022F7E79046A8
:102E500059E00A2102E010220DE010214FF0000A93
:102E600000910BE010224FF0000A44F00404082700
:102E7000009203E008224FF0000A0092C4F30252CD
:102E8000022A05D059F804CB0021032A08D009E012
:102E900009F1070121F00702F2E802C1914605E0BD
:102EA0001FFA8CFC042A01D10CF0FF0C4FF0000833
:102EB000220728D5702806D0009B83F0100353EA20
:102EC0000A0305D00EE040228DF80420012208E01C
:102ED0005CEA010206D030228DF804208DF805004E
:102EE00002229046009B83F0080353EA0A030AD1AA
:102EF0005CEA010201D1620705D530228DF8042079
:102F00004FF001087F1E582804D034A003900EA86B
:102F100002900DE036A0F9E753466046009AFDF7AF
:102F200033F984460398825C0298401E0290027036
:102F30005CEA0100F0D1029806A9081A00F1200A03
:102F4000600702D524F4803400E00127574502DDF4
:102F5000A7EB0A0000E0002000EB0A0100900598B2
:102F60004144401A0590E00306D45B462146179A77
:102F7000059800F0B3F90544002706E001A85A4679
:102F8000C05D179990476D1C7F1C4745F6DBE00339
:102F90000CD55B462146179A059800F09FF9054429
:102FA00004E030205A46179990476D1C0099481E3E
:102FB00000900029F5DC08E0029802995A46007852
:102FC000491C0291179990476D1CBAF10001AAF1B2
:102FD000010AF1DC65E100000928010030313233DB
:102FE0003435363738396162636465660000000045
:102FF000303132333435363738394142434445462F
:103000000000000000F058F90544761C30780028D4
:103010007FF4ECAD19B02846BDE8F08F620700D40C
:10302000062709F1070222F0070CFCE80223E1461B
:1030300003F000485FEA080C02D00FF2702C0DE09C
:103040005FEA045C02D50FF2682C07E05FEAC47CFB
:1030500002D00FF2602C01E0AFF2700C4FF0FF389D
:1030600023F00043CDF850C065280CD006DC45287D
:1030700009D046281DD047283DD13DE0662818D00C
:1030800067287ED138E00021112F01DB112000E0FC
:10309000781CCDE9000106A90EA8FFF7D5FCDDE9F3
:1030A0000F010E9A03910021009207F1010A049189
:1030B0004DE04FF000400097CDE9011006A90EA8A1
:1030C000FFF7C2FCDDE90F0203920E9B119900226B
:1030D000DDF80CA00093049211B9791C00EB010AF1
:1030E000B7EB0A0004D4C0F1FF3007F1010A0490E5
:1030F000AAEB0700019044E0012F00DA012700212C
:10310000112F01DD112000E03846CDE9000106A9AC
:103110000EA8FFF799FCDDE90F010E9A039100213B
:1031200004910092BA4621070CD40399514500DA64
:103130008A46BAF1010F05DD009AAAF10101515C3E
:10314000302908D0B84202DA10F1040F06DA012162
:10315000CDE9011015E0AAF10101E9E7002805DC3D
:10316000049901440491AAEB000102E0411C51457D
:1031700000DD8A460499401A401C01904FF000403F
:103180000290200704D40198504501DBCDF804805B
:1031900000208DF84F0002980DF14F07B0F1004F5D
:1031A00025D02B200E9002984FF0020800280CDA50
:1031B000404202902D200E9007E00A210298FDF770
:1031C000BFFB3031029007F8011DB8F10001A8F1F2
:1031D0000108F2DC02980028EFD1791E0E980870E1
:1031E000307800F0200040F0450007F8020D12A8EA
:1031F000C01B00F107081498007800B1012000EB13
:103200000A01019801EBE07105984144401A401E03
:103210000590E00306D45B462146179A059800F016
:103220005DF805441498007818B15A4617999047EC
:103230006D1CE00324D55B462146179A059800F0E3
:103240004DF805441CE00498002807DBDDE9030184
:10325000884203DD0098405C179901E017993020FF
:103260005A469047049805F10105401C04900198C6
:10327000401E019004D12E205A46179990476D1C8C
:10328000BAF10001AAF1010ADDDC05E017F8010B33
:103290005A46179990476D1CB8F10001A8F1010832
:1032A000F4DC5B462146179A0598ABE62D0000003A
:1032B0002B000000200000002DE9F041044600250D
:1032C0001E461746880404D405E039462020B0473E
:1032D0006D1C641EF9D52846BDE8F0812DE9F0414A
:1032E000044600251E469046C80301D5302700E05D
:1032F0002027880404D505E041463846B0476D1CB8
:10330000641EF9D52846BDE8F0810A68531C0B609D
:103310001070704770B505460C46002614B10DB10B
:10332000A54201D1002070BDAE6826B9AC606460D2
:103330000020206007E0706828B12146706801F025
:103340009EFFA86844600120EDE72DE9F04705469F
:103350000E4614461F46DDF820904FF00008C24686
:103360001DB116B10CB1A54202D10020BDE8F08715
:10337000B9F1000F07D0304600F080FA8046E068CF
:1033800040F4007A0CE03946304600F0C3F980463C
:10339000B8F1000F01D10020E8E7E06820F4007ADE
:1033A000A08900F4007020B9206A10B1206A796801
:1033B0008847C4F82080C4F80CA021462846FFF7AF
:1033C000A9FFD3E7014609B1086808B90020704792
:1033D00019B1D1E90120904201D30846F7E702E094
:1033E0008868401C886041B1D1E90120904204D234
:1033F0008A680868805C2028F2DDD1E901209042CB
:1034000002D18868401E88600846E0E7F8B50446A7
:103410000D4616460020044B3246294600902046B1
:10342000FFF793FFF8BD00006C01002010B52DEDF3
:10343000028BB0EE408AF0EE608A164800F0CCF8BD
:10344000044614B30820E06084ED068B9FED120B58
:1034500053EC102B51EC180BFDF75AFA03D86FF010
:103460000040606111E09FED0E0B53EC102B51EC0E
:10347000180BFDF735FA03D84FF00040606104E007
:1034800051EC180BFDF70CFA60612046BDEC028B85
:1034900010BD00006C0100200000C0FFFFFFDF41F5
:1034A000000000000000E0C110B5044800F094F8EE
:1034B00004460CB14020E060204610BD6C010020A5
:1034C00070B505460A4800F087F804466CB1102034
:1034D000E0600749284600F01DF92061206920B905
:1034E000204600F007F8002070BD2046FCE70000F1
:1034F0006C01002070B50446002522E02568A089F3
:1035000000F4807020B9A06810B1A068FFF7F2FF46
:10351000A08900F4807028B9206918B10A4A20698E
:1035200051688847A08900F4007028B9206A18B152
:10353000054A206A51688847034841682046884701
:103540002C46002CDAD170BD6C01002070B5044609
:103550000D4600222946204600F07AFC70BD00008E
:1035600038B91449144A11601449516014499160E2
:1035700070471049104A1160016809B10168116073
:103580000E490D4A5160416809B1416851600021FE
:10359000094A916011460968064A914207D10649D5
:1035A0004968064A914202D10549034A916000BF29
:1035B000DEE70000D92900086C010020412900083D
:1035C00001510008014609B900207047087B08B97D
:1035D0000120FAE70020F8E770B5044628202168AA
:1035E000884705461DB128212846FCF71DFE2846C0
:1035F00070BD10B5044600221146204600F06CF85C
:1036000010BD00002DE9F0478AB004460E4615466D
:1036100098461C2103A8FCF707FE002700202C4930
:103620000860486004B106B932E0039404960020B3
:103630000590284A07CA07AB07C32648FFF7CCFF07
:10364000074607B924E003A801F090FD8246FFF782
:10365000B9FE81464946384601F05EF800B917E0E8
:10366000B8F1000F0BD003A8FFF7ACFEDDE90410A2
:10367000884203D205990398405C00B108E01DB16F
:10368000059903980844286038460AB0BDE8F087D9
:1036900017B13846FFF72EFFC4B101940020029005
:1036A000DDE90410884202D20598029004E00498F3
:1036B00010B10498401E02901DB1DDE901010844DB
:1036C00028600348DDE9011206C000BF0020DCE7E6
:1036D000640100206C0100202DE9F04104460D46F4
:1036E000164614B90020BDE8F0812046FCF7B9FD6C
:1036F000471C33462A4639462046FFF783FFF2E748
:1037000010B50446024A0121204601F0A3F810BD7D
:103710006C0100202DE9F04104460D4600260027EB
:1037200014B90020BDE8F0812046FCF79AFD461C44
:1037300030462968884707460FB90020F2E732462D
:1037400021463846FCF757FD3846EBE72DE9F041B6
:103750000646002400270025A0463046FFF749FF13
:1037600007460BA13846FFF7F1FE05462DB1601C58
:10377000C4B2287D0849087000BF3846FFF722FF11
:1037800010B93846FFF7B6FE2046BDE8F0810000CC
:103790006D6F6465000000005C0100202DE9F041C0
:1037A0002DED028B054600240026FFF77DFE064620
:1037B0001A480078FDF767F841EC180BB0EE480A9C
:1037C000F0EE680AFFF732FE07463A4614A130468B
:1037D000FFF71CFE1448FFF773FE07463A4613A195
:1037E0003046FFF713FE3046FFF78AFF04462046B7
:1037F000FCF737FD07463A4621462846FCF7FBFC16
:103800003046FFF7DFFE10B93046FFF773FE204663
:10381000FFF796F8BDEC028BBDE8F0815C0100205B
:103820006D6F6465000000004C2200206D657368B8
:103830005F69640070B504460D4604B10DB90120FE
:1038400070BDAC4201D10020FAE705E0207808B94C
:103850000020F5E7641C6D1C2078FCF7C6FC0646CA
:103860002878FCF7C2FC8642F0D02078FCF7BDFC3B
:1038700006462878FCF7B9FC301AE1E770470000EB
:1038800010B52DED0C8BB0EE409AF0EE609AB0EED4
:10389000418AF0EE618AB0EE480AF0EE680AFFF75E
:1038A0007DF8B0EE40BAF0EE60BAB0EE490AF0EE44
:1038B000690AFFF773F8B0EE40CAF0EE60CA53EC45
:1038C0001B2B51EC1C0BFDF723F806D2B0EE490A76
:1038D000F0EE690AFFF762F805E0B0EE480AF0EE94
:1038E000680AFFF75BF8B0EE40AAF0EE60AA9FED21
:1038F000140B53EC102B51EC1A0BFCF752FF41EC5C
:103900001B0B53EC182B51EC190BFCF744FF41EC4B
:103910001D0BB0EE4D0AF0EE6D0AFFF73FF8B0EE6A
:1039200040CAF0EE60CA53EC1B2B51EC1C0BFCF7A9
:10393000D7FF03D80120BDEC0C8B10BD0020FAE7A7
:10394000000000000000B03C2DE9F04105460026D3
:1039500000272846FFF74DFE0746002408A13846F9
:10396000FFF7F4FD044604B1267D3846FFF72AFE32
:1039700010B93846FFF7BEFD3046BDE8F0810000C3
:10398000636F6E6669675F616E73000008B50E480D
:1039900000680E4908600C48001D006848600A482D
:1039A0000830006888600846007A00900846008960
:1039B000C0F3072308468068C0F3074204A1064805
:1039C000FEF7AAFF08BD0000E8F7FF1F84010020F2
:1039D00025782578257800004C22002004480068CE
:1039E00020B103480068401E01490860704700008C
:1039F000880000202DE9F04104460D4600260027EE
:103A00000CB1206810B90020BDE8F081606828B1D1
:103A1000D4E90110884201D30020F5E7B5F1004F49
:103A200001D30020F0E7A068401C05446068A8426C
:103A300003D3A16820680844E6E7206908B10020A4
:103A4000E2E7B5F1804F07D3B5F1004F02D26FF036
:103A5000004702E00020D7E76F00206A60B13946D6
:103A6000226A206890470646DEB9E16920688847E7
:103A7000002060602060C7E73846A1698847064695
:103A800036B9E16920688847002060602060BBE7A4
:103A9000A068421C30462168FCF7ADFBE169206854
:103AA000884767602660A0683044ADE710B56421A0
:103AB0000948FCF7B9FB084801F018FB0648FFF776
:103AC00045FE64210448FCF7AFFB0348FFF766FEA0
:103AD000014801F005FF10BD8223002010B500222F
:103AE0001146272000F0F2FA40F2036001F0CEFA0E
:103AF00040F2127001F0CAFA4FF4806303221821D9
:103B0000174800F0D2F94FF400630322042114484F
:103B100000F0CBF9134801F053FF4FF4E1311148A5
:103B200001F0FCFE04210F4801F0D7FF00210D48F1
:103B300001F0DBFF00210B4801F0E7FF00210948FD
:103B400001F0C3FF0821074801F0D7FF054801F045
:103B50007FFF40F20531034801F08EFF10BD0000E9
:103B6000000C0140004800400348006940F080001C
:103B700001490861704700000020024000B503467B
:103B8000012200BF00F00CF802465B1E012A01D1A1
:103B9000002BF7D1012A00D10422104600BD0000FD
:103BA00000200A49C96801F0010109B101200CE0B7
:103BB0000649C96801F0100109B1032005E0034975
:103BC000C96801F0040101B10220704700200240E1
:103BD0000548006900F0800020B1044802494860AF
:103BE00003484860704700000020024023016745F9
:103BF000AB89EFCD00B50346012200BF00F00CF801
:103C000002465B1E012A01D1002BF7D1012A00D107
:103C10000422104600BD000000200A49C96C01F0D2
:103C2000010109B101200CE00649C96C01F0100145
:103C300009B1032005E00349C96C01F0040101B199
:103C4000022070470020024070B504460D46002651
:103C50002A480088B0F5007F35D92948844219D216
:103C60004FF47020FFF78AFF0646002E43D1254807
:103C7000006940F001002349086125804FF470205D
:103C8000FFF77CFF06461F48006920F001001D4930
:103C9000086130E04FF47020FFF7ACFF064656BBDA
:103CA0001848006D40F001001649086525804FF462
:103CB0007020FFF79FFF06461248006D20F00100BC
:103CC0001049086517E04FF47020FFF757FF0646CC
:103CD0008EB90C48006940F001000A49086125804E
:103CE0004FF47020FFF74AFF06460648006920F0AF
:103CF000010004490861304670BD0000E0F7FF1F75
:103D0000FFFF07080020024030B50546364800880E
:103D1000B0F5007F48D9354885421ED24FF4702057
:103D2000FFF72CFF0446002C5BD13148006940F0BE
:103D300002002F49086108464561006940F04000D3
:103D400008614FF47020FFF719FF04462848006906
:103D500020F002002649086143E04FF47020FFF78D
:103D600049FF0446002C3CD12148006D40F0020080
:103D70001F49086508464565C06900F0020008B1A2
:103D8000084645611A48006D40F040001849086532
:103D90004FF47020FFF72EFF04461548006D20F009
:103DA0000200134908651CE04FF47020FFF7E6FE9F
:103DB0000446B4B90E48006940F002000C4908619D
:103DC00008464561006940F0400008614FF47020EA
:103DD000FFF7D4FE04460648006920F002000449BB
:103DE0000861204630BD0000E0F7FF1FFFFF070815
:103DF0000020024070B504460D46E1B2054801F0CE
:103E0000DAFD00BF0621034801F027FE0028F9D0A3
:103E1000204670BD004400402E20704710B5094870
:103E200001F064F90748FFF791FC012809D0064822
:103E30000078064908700348FFF7B0FC014801F01C
:103E400029FF10BD90010020640000205C010020CB
:103E50002DE9F04105460E461746002405B116B976
:103E60000020BDE8F081AC685FB100E024688CB14F
:103E7000206A78B13046216AFCF7FAF90028F5D1BA
:103E800008E000E024682CB13046216AFFF7D2FC3C
:103E90000028F7D10CB1206A08B90020E1E72046DC
:103EA000DFE74161704701617047F0B5044616468F
:103EB0000025002201F00F0501F0100747B1042E84
:103EC00005D145F00305E76B1F43E76300E0354389
:103ED00000201EE0012787401F40C7B122684FEA3B
:103EE000800C0F2707FA0CF7BA43870005FA07F78B
:103EF0003A43282904D1012787401F40676105E024
:103F0000482903D1012787401F4027612260471CB1
:103F1000B8B20828DED3082022E0012787401F40DE
:103F2000E7B16268A0F108074FEA870C0F2707FA8C
:103F30000CF7BA43A0F10807BF0005FA07F73A43A8
:103F4000282904D1012787401F40676105E04829DF
:103F500003D1012787401F4027616260471CB8B228
:103F60001028DAD3F0BD00002DE9F0410B3020F02D
:103F70000706104D19E02068B04215D3B0420AD9A7
:103F8000871B201DD4F80480FCF735F9A019C0E97F
:103F90000078286004E060682860201DFCF72BF999
:103FA000201D2660BDE8F081251D2C68002CE2D183
:103FB0000020F7E77C01002010B540F2056001F019
:103FC00065F80123032210210148FFF76EFF10BDA1
:103FD0000014014001F0F6F9FFF7D8FC0020FFF7CC
:103FE000BFFAFFF71BFF01F013FC00F02BF8FFF7FF
:103FF00075FDFFF7E1FFFDF741F9FEF70BF8FEF75E
:1040000089F801F007FA18E001F058FB01F0BAFB5B
:104010000A480078012804D1002008490870FEF7FA
:104020001DFA0748007820B100200549087001F00A
:104030001BFEFDF7F5FAFDF70BFAE5E7650000203A
:104040006600002010B500221146262000F03EF840
:1040500040F2026001F01AF840F2117001F016F817
:104060000423032218211748FFF71FFF0823032208
:1040700004211448FFF719FF134801F0A1FC4FF485
:104080001651114801F04AFC04210F4801F025FDAA
:1040900000210D4801F029FD00210B4801F035FDFC
:1040A0000021094801F011FD0821074801F025FD14
:1040B000054801F0CDFC40F20531034801F0DCFC7D
:1040C00010BD000000080140004400402DE9F0410F
:1040D00003460D46164600240027A0462A480068DD
:1040E00000F4E060B0F5E06F03D100BF4FF00408CA
:1040F00030E02548006800F4E060B0F5C06F03D1FF
:1041000001274FF0030825E01F48006800F4E06035
:10411000B0F5A06F02D10227B8461BE01A4800682C
:1041200000F4E060B0F5806F03D103274FF0010881
:1041300010E01548006800F4E060B0F5407F03D15E
:1041400004274FF0000805E04FF4A06000F020F8CD
:104150000227B846C7F1040005FA00F4C8F10401CB
:104160000F20C8403040044324010848C45403F0E1
:104170001F01012088405911890001F1E021C1F897
:104180000001BDE8F08100000CED00E000E400E07B
:1041900002490143024A1160704700000000FA051D
:1041A0000CED00E02DE9F04180460C46002500278B
:1041B000E068B0F57A7F02D30020BDE8F081E068C6
:1041C000401CE060A1682068405C5B2800D05FE094
:1041D000A068401CA0602046FFF7F4F84CB1D4E979
:1041E0000110884205D2A1682068405C5D2800D19A
:1041F0003FE01CB1D4E90110884203D3A068401EFF
:10420000A06045E0A068401EA06000BF04F110005F
:10421000FFF7E2F9064606B93AE015B935463746E2
:1042200002E03E6077603746A068401CA0602046F0
:10423000FFF7C8F82146384600F06EFA00B927E0CB
:104240002046FFF7BFF844B1D4E90110884204D2F8
:10425000A1682068405C2C28D8D044B1D4E9011072
:10426000884204D2A1682068405C5D2800D00FE03D
:1042700000BFE068401EE06005B16F602020C8F814
:104280000C00C8F80850A068401CA060012094E70A
:1042900015B12846FFF72EF900208EE702460023CD
:1042A000002100BF23E0505C302806DB505C392839
:1042B00003DC505C3038034415E0505C412806DBD9
:1042C000505C462803DC505C373803440BE0505CFC
:1042D000612806DB505C662803DC505C57380344D9
:1042E00001E000207047032900D21B01491C04296A
:1042F000D9D31846F6E70000F0B52DED028B91B04A
:1043000006460C469FED4B0BB0EE408AF0EE608AFD
:1043100000201090FFF780FD074600250CB12068B3
:1043200020B9002011B0BDEC028BF0BD00253CE0AF
:10433000A16820680844405D342820D00ADCA0F140
:104340002B0009282ED2DFE800F0202D212A2D167F
:1043500017181900382816D006DC352810D0362852
:104360000FD037281ED10DE039280DD045280FD0A9
:10437000652817D10BE000BF00BF00BF00BF00BF22
:1043800000BF00BF00BF00BF00BF00BF00BF00BF35
:10439000A16820680844405D0DF8050003E00DF8B1
:1043A000057000E00AE000BF6D1C3F2D05D224B16E
:1043B000A068284461688842BAD300BF00200DF885
:1043C000050010A96846FEF7F3FAB0EE408AF0EE59
:1043D000608A68461099884201D10020A2E786EDE4
:1043E000068B9FED160B53EC102B51EC180BFCF7C2
:1043F0008FFA03D86FF00040706111E09FED110B50
:1044000053EC102B51EC180BFCF76AFA03D84FF061
:104410000040706104E051EC180BFCF741FA706148
:104420000820F060A0686A461099891A0844A060C4
:10443000012077E700000000000000000000C0FF3E
:10444000FFFFDF41000000000000E0C12DE9F04166
:1044500080460C4600260025E068B0F57A7F02D33E
:104460000020BDE8F081E068401CE06044B1D4E980
:104470000110884204D2A1682068405C7B2800D0EB
:104480007DE0A068401CA0602046FEF79BFF4CB179
:10449000D4E90110884205D2A1682068405C7D28DB
:1044A00000D15DE01CB1D4E90110884203D3A068BB
:1044B000401EA06063E0A068401EA06000BF04F141
:1044C0001000FFF789F8074607B958E016B93E46CD
:1044D0003D4602E02F607D603D46A068401CA06024
:1044E0002046FEF76FFF2146284600F04EF800B93F
:1044F00045E02046FEF766FF286928620020286113
:1045000044B1D4E90110884204D2A1682068405C1B
:104510003A2800D033E0A068401CA0602046FEF797
:1045200051FF2146284600F0F7F800B927E0204661
:10453000FEF748FF44B1D4E90110884204D2A168D3
:104540002068405C2C28BAD044B1D4E901108842DC
:1045500004D2A1682068405C7D2800D00FE000BF35
:10456000E068401EE06006B175604020C8F80C00AD
:10457000C8F80860A068401CA060012071E716B16F
:104580003046FEF7B7FF00206BE72DE9F84F804675
:104590000C46A16820680844461CA16820680844AD
:1045A000451C002000900027A1682068405C22285C
:1045B00000D0A6E04FF0000AD1460DE028785C2834
:1045C00009D1681C2168401A6168884200D398E0CC
:1045D00009F101096D1C6D1C2068281A6168884268
:1045E00002D228782228E9D12068281A61688842F6
:1045F00002D22878222800D083E0A16820680844ED
:10460000281AA0EB090A0AF1010021698847074628
:1046100007B976E0009761E030785C2807D016F89B
:10462000010B009908700098401C009056E04FF074
:104630000209A81B012800DA63E07078662819D007
:1046400008DC222832D02F2832D05C282FD06228D4
:1046500040D108E06E2814D0722819D074281ED0DA
:10466000752837D12BE00820009908700098401C6D
:10467000009030E00C20009908700098401C0090D9
:1046800029E00A20009908700098401C009022E060
:104690000D20009908700098401C00901BE0092034
:1046A000009908700098401C009014E000BF00BF03
:1046B0007078009908700098401C00900BE06A46E2
:1046C0002946304601F029FA8146B9F1000F00D1A0
:1046D00017E000E015E000BF4E4400BFAE429BD3A0
:1046E0000020009908701020C8F80C00C8F810705D
:1046F0002068281AA060A068401CA0600120BDE8C6
:10470000F88F17B138466169884716B12068301AAA
:10471000A0600020F3E7000070B505460C460CB120
:10472000206808B9002070BD9CB1A068001D6168B8
:1047300088420ED8A2682168881804223FA1FBF79E
:10474000AEFD30B90420E860A068001DA060012023
:10475000E9E79CB1A068401D616888420ED8A26854
:1047600021688818052237A1FBF799FD30B901208F
:10477000E860A068401DA0600120D4E7ACB1A0684B
:10478000001D6168884210D8A26821688818042238
:104790002EA1FBF784FD40B90220E860012068618A
:1047A000A068001DA0600120BDE76CB1D4E9011034
:1047B000884209D2A1682068405C222804D12146A1
:1047C0002846FFF7E2FEAEE7BCB1D4E9011088420B
:1047D00013D2A1682068405C2D2809D0A168206808
:1047E000405C302809DBA1682068405C392804DC83
:1047F00021462846FFF780FD95E76CB1D4E901100A
:10480000884209D2A1682068405C5B2804D1214617
:104810002846FFF7C7FC86E76CB1D4E9011088424F
:1048200009D2A1682068405C7B2804D12146284633
:10483000FFF70CFE77E7002075E700006E756C6CE3
:104840000000000066616C7365000000747275659D
:1048500000000000F0B589B007460E46144600255A
:1048600024216846FBF7E0FC4FF4807021688847FC
:1048700000904FF480700190059694E8070006AB15
:1048800007C3009800B933E06946384600F0ACFA37
:1048900000B92DE0684601F011F8A06850B1029B04
:1048A000591C0098A2689047054605B920E00020F1
:1048B00000901AE0029A501C21688847054605B905
:1048C00016E0DDE90130401C834201D2019801E08D
:1048D0000298401C024628460099FBF78CFC0020F9
:1048E00002996854009861688847284609B0F0BD6D
:1048F000009810B100986168884715B12846616832
:1049000088470020F2E72DE9F04107460C460025D4
:10491000A846BE6814B90020BDE8F08101212046F8
:10492000FFF768F805460DB90020F5E75B20287011
:10493000A068401CA060E068401CE06028E02146C0
:10494000304600F051FA08B90020E5E7204600F0B3
:10495000B5FF3068D8B1606908B1022000E00120DD
:10496000804608F101012046FFF744F805460DB9DD
:104970000020D1E72C2005F8010B606910B1202040
:1049800005F8010B00202870A0684044A06036683C
:10499000002ED4D102212046FFF72CF805460DB990
:1049A0000020B9E75D2005F8010B00202870E068C1
:1049B000401EE0600120AFE72DE9F0432DED028BB2
:1049C0008BB080460D46002798ED060BB0EE408A6E
:1049D000F0EE608A002600241C2104A8FBF724FCCA
:1049E000FFF71AFA81469FED380B8DED020B2DB9BA
:1049F00000200BB0BDEC028BBDE8F0838DED008B89
:104A0000DDE900210AB1012200E0002241EA0200B2
:104A100020F000412E4A511AC90F61B98DED008B6B
:104A200051000198B1EB400F03D1009808B9012063
:104A300000E0002028B127A104A8FDF76DFF06467D
:104A40001DE053EC182B25A104A8FDF765FF0646D1
:104A500002AA24A104A8FBF731FC012808D1B0EE7A
:104A6000481AF0EE681A9DED020BFEF709FF30B907
:104A700053EC182B1CA104A8FDF74EFF0646002E90
:104A800001DB192E01DD0020B3E7711C2846FEF77B
:104A9000B1FF07460FB90020ABE700240BE004A8E4
:104AA000005D484502D12E20385503E004A8005D82
:104AB000385500BF641CB442F1D300203855A868B3
:104AC0003044A860012094E70000000000000000CE
:104AD0000000F07F6E756C6C0000000025312E31F7
:104AE00035670000256C670025312E3137670000DF
:104AF0002DE9F04781460C4600250026D9F80870BC
:104B000014B90020BDE8F087606908B1022000E018
:104B100001200646711C2046FEF76CFF05460DB9C4
:104B20000020EFE77B2005F8010BE068401CE06007
:104B3000606910B10A2005F8010BA0683044A0603C
:104B400069E06069B8B12046E168FEF753FF0546A9
:104B50000DB90020D6E74FF0000804E0092005F861
:104B6000010B08F10108E0684045F7D8D4E90201DB
:104B70000844A06000BF2146386A00F07BF808B9FD
:104B80000020BFE7204600F099FE606908B10220CE
:104B900000E00120064631462046FEF72BFF054681
:104BA0000DB90020AEE73A2005F8010B606910B19D
:104BB000092005F8010BA0683044A0602146384662
:104BC00000F012F908B900209CE7204600F076FEBC
:104BD000606908B1012000E00020396809B10121B5
:104BE00000E000214618711C2046FEF703FF054631
:104BF0000DB9002086E7386810B12C2005F8010BAC
:104C0000606910B10A2005F8010B00202870A06827
:104C10003044A0603F68002F93D1606910B1E06814
:104C2000401C00E0022001462046FEF7E3FE054658
:104C30000DB9002066E7606950B1002003E009214A
:104C400005F8011B401CE168491E8142F7D800BFEE
:104C50007D2005F8010B00202870E068401EE06010
:104C600001204FE770B504460D462946206900F043
:104C700001F870BD2DE9F04707468A46002400265A
:104C80000025A046A146BAF1000F02D10020BDE8E0
:104C9000F0876FB903215046FEF7ACFE06460EB909
:104CA0000020F4E74DA13046FBF7F0FA0120EEE7D3
:104CB0003C4622E020780C2811D006DC08280DD0D4
:104CC00009280FD00A2810D10AE00D2809D022287F
:104CD00002D05C2809D100E000BF00BF00BF00BFC8
:104CE00000BF00BF09F1010905E02078202801DAA2
:104CF00009F1050900BF00BF641C20780028D9D144
:104D0000E01B00EB090808F103015046FEF772FEB4
:104D100006460EB90020BAE7B9F1000F0FD12220E4
:104D2000307042463946701CFBF765FA222108F1C3
:104D3000010031540021401C31540120A7E72220FA
:104D40003070751C3C463DE020781F2808DD207837
:104D5000222805D020785C2802D0207828702FE007
:104D60005C2005F8010B20780C2815D006DC0828FB
:104D70000FD0092819D00A281AD110E00D2811D017
:104D8000222803D05C2813D1287018E02220287034
:104D900015E06220287012E0662028700FE06E2077
:104DA00028700CE07220287009E07420287006E05A
:104DB00022780BA12846FDF7AFFD2D1D00BF00BFD7
:104DC000641C6D1C20780028BED1222108F101004E
:104DD00031540021401C3154012058E722220000A8
:104DE00075253034780000002DE9F04104460E4668
:104DF000002504B116B90020BDE8F081207B102801
:104E000057D008DC01281BD0022827D0042809D05D
:104E100008285DD130E0202850D0402853D0802889
:104E200056D12EE005213046FEF7E4FD05460DB9CA
:104E30000020E1E727A12846FBF728FA0120DBE75D
:104E400006213046FEF7D6FD05460DB90020D3E712
:104E500022A12846FBF71AFA0120CDE705213046AA
:104E6000FEF7C8FD05460DB90020C5E71DA128467F
:104E7000FBF70CFA0120BFE731462046FFF79CFD07
:104E8000BAE70027206908B90020B5E72069FBF7D9
:104E9000E8F9471C39463046FEF7ACFD05460DB92A
:104EA0000020A9E73A4628462169FBF7A4F901202A
:104EB000A2E731462046FFF7D5FE9DE73146204662
:104EC000FFF721FD98E731462046FFF711FE93E7F3
:104ED000002091E76E756C6C0000000066616C73D9
:104EE0006500000074727565000000002DE9F14F47
:104EF0008EB000200C905CA090E8004CC068CDE91A
:104F000005BECDF810A0079058A0D0F804A0006806
:104F1000CDE9020A0FF2541ADAE9000ACDE9000AD3
:104F200055484068C0F381000D900D9820B10128CC
:104F300004D0022863D103E0504B62E0504B60E0A4
:104F40004D48406800F48039B9F5803F2FD14A4878
:104F5000C06A00F080400B900B9808B9484A00E006
:104F6000484A4548C06A00F480300A900A98B0F573
:104F7000803F12D14048C06AC0F30310401C089023
:104F80003D48C06AC0F30320871C112F00D11427AD
:104F90000898B2FBF0F000FB07F23748C06A00F057
:104FA0000F00401C09900998B2FBF0F200E0364A6D
:104FB00031484068C0F383412F48406800F00050FA
:104FC00008B141F010012C48406800F0804008B161
:104FD00041F020010F2901D2891C06E00F2903D3DB
:104FE0003E2901D8491C00E03F2102FB01F30F29B3
:104FF00004D102EB4200400000EB520301E01F4BE2
:1050000000BF00BF1C484068C0F3031504A8465DFC
:1050100023FA06F418484068C0F3022502A8465D4A
:1050200024FA06FC14484068C0F3C2251DF8056048
:1050300024FA06F80E9830B1012806D0022806D0CE
:1050400003280AD106E00C9308E00C9406E0CDF8A2
:1050500030C003E0CDF8308000E000BF00BF0C9806
:105060000FB0BDE8F08F000000000000000000005D
:1050700001020304060708090010024000127A002A
:1050800040787D01006CDC0200093D00064A02EB1D
:105090009011096800F01F0301229A401143024B4E
:1050A00003EB90121160704700100240064A02EBB9
:1050B0009011096800F01F0301229A409143024BAE
:1050C00003EB90121160704700100240064A02EB99
:1050D0009011096800F01F0301229A401143024B0E
:1050E00003EB9012116070470010024010B50446A7
:1050F000C82221460148FCF782F810BD00F80708D5
:105100002DE9F04704008A4616D054F8047CD4F800
:1051100000903E1F564500D956462046FDF710FC2C
:1051200005468846324621465046FEF71DFF40B1EF
:10513000C0F80090BDE8F087BDE8F0470846FDF7ED
:105140004BBC44E9017955B129686A18211F8A428C
:1051500002D9611B091F2960C5F80480EAE7024AE9
:10516000C2F80080E6E700007C01002010B504468C
:105170001CB1206808B1A06808B1002010BD7CB146
:10518000A068001D616888420AD2A2682168881858
:10519000032204A1FBF783F810B9A068C01CA0602B
:1051A0002046EBE7EFBBBF00026842F4005202600A
:1051B00001617047016841F040010160704701469C
:1051C000C86880B27047C160704702469068084066
:1051D00008B1012070470020FCE70246002010685B
:1051E00000F441500B6818434B6818438B68184310
:1051F000CB6818430B6918434B6918438B691843F4
:105200001060D36923F40063D36170472DE9F04146
:1052100004460E46002700252AE0F25D1009F25DE3
:1052200002F00F01002805DB092803DC00F1300241
:10523000625506E00A2804DB0F2802DC00F1570261
:105240006255002907DB092905DC01F13002D3B2E0
:105250006A1CA35408E00A2906DB0F2904DC01F1CB
:105260005702D3B26A1CA354781C87B2A81C85B21B
:105270003046FAF7F6FFB842CFD8BDE8F0810160BA
:105280004860704700200021464A126842F480328C
:10529000444B1A6000BF401C424A126802F40031BD
:1052A00019B94FF6FF729042F5D13E4A126802F4E6
:1052B00000320AB900BFFEE73A4AD26942F0805292
:1052C000384BDA61384A126842F44042364B1A6071
:1052D000344A5268334B5A601A4652685A601A462A
:1052E000526842F480625A601A4652682F4B1A4044
:1052F0002C4B5A601A4652682D4B1A43294B5A6060
:105300001A46D26A2B4B1A40264BDA621A46D26AE8
:10531000294B1A43234BDA621A46126842F0806224
:105320001A6000BF1F4A126802F00062002AF9D01A
:105330001C4A126842F080721A4B1A6000BF194A68
:10534000126802F00072002AF9D0174A126842F47B
:105350008032154B1A6000BF134A526802F4803243
:10536000002AF9D0104A126842F400320E4B1A603B
:1053700000BF0D4A526802F40032002AF9D0094AEF
:10538000526822F00302074B5A601A46526842F0F4
:1053900002025A6000BF034A526802F00802002A63
:1053A000F9D070470010024000700040FFFFC39F1B
:1053B0000000352000F0FEBF4906010010B5FFF7E0
:1053C00061FF10BD10B5124800684FF47A71B0FB50
:1053D000F1F4601EB0F1807F01D301200FE0601E68
:1053E0004FF0E02148610F214FF0FF30FCF754FAF5
:1053F00000204FF0E021886107200861002008B1FB
:1054000000BFFEE70021481EFCF746FA10BD000071
:105410008C0000201FB540F20B60FFF737FE1248EA
:1054200000F024F87720ADF800000020ADF802006D
:10543000ADF804004FF4FA7002900020ADF80600B9
:105440008DF80C006946084800F0D8F8064800F0CE
:10545000CFF8002211461920FEF738FE012102483C
:1054600000F018F91FBD0000002C014010B50446E3
:105470005C49601A8C426FD019DC5B49A4EB0100D7
:105480008C424ED009DCB4F1804F2ED057482044D6
:10549000A0B3B0F5806F72D13AE0B0F5806F49D01B
:1054A000B0F5006F4FD0B0F5406FF4D17BE0B0F5B0
:1054B000983F5BD009DCB0F5806F73D0B0F5883FC2
:1054C0000AD0B0F58C3F5AD147E0B0F59A3F57D09B
:1054D000B0F59C3F53D15CE040F20B30FFF7F6FD96
:1054E00040F20B30FFF7E2FD79E04FF48060FFF708
:1054F000EDFD4FF48060FFF7D9FD70E0FFE740F26B
:105500000140FFF7E3FD40F20140FFF7CFFD66E009
:1055100040F20240FFF7DAFD40F20240FFF7C6FD1D
:105520005DE040F20340FFF7D1FD40F20340FFF79A
:10553000BDFD54E040F20440FFF7C8FD40F20440D6
:10554000FFF7B4FD4BE040F20540FFF7BFFD40F22E
:105550000540FFF7ABFD42E02EE040F20D30FFF7D3
:10556000B5FD40F20D30FFF7A1FD38E040F21330F9
:10557000FFF7ACFD40F21330FFF798FD2FE02DE070
:105580004FF44570FFF7A2FD4FF44570FFF78EFD15
:1055900025E040F21530FFF799FD40F21530FFF796
:1055A00085FD1CE011E040F20640FFF78FFD40F260
:1055B0000640FFF77BFD12E040F20740FFF786FD53
:1055C00040F20740FFF772FD09E04FF48160FFF7FA
:1055D0007DFD4FF48160FFF769FD00E000BF00BF73
:1055E00010BD0000001C0040000C004000FCFFBF8C
:1055F000016841F001010160704700000A88826281
:105600001D4A90420ED0B0F1804F0BD01B4A904201
:1056100008D01B4A904205D01A4A904202D01A4A3A
:1056200090420BD1026822F07002026002684B883F
:105630001A43026002688B881A4302608A68C26259
:10564000124A90420AD0124A904207D0026822F4CD
:10565000407202600268CB881A430260064A904298
:1056600002D0094A904201D10A7B0263426942F0AA
:105670000102426170470000002C0140000400401C
:1056800000080040000C00400034014000100040C1
:1056900000140040C2680A43C260704702698A432E
:1056A000026170470246D06800EA010310690840B1
:1056B00010B10BB1012070470020FCE710B59AB083
:1056C0002948007840B929480078012804D10020F1
:1056D00026490870FEF7EAF925480078002841D0ED
:1056E00000202349087023492348FAF7CFFDC82139
:1056F0002048FAF799FD2048FEF726F910B101205D
:10570000194908701C48FEF721F850B1642101A81E
:10571000FAF78AFD01A8FEF741F801A800F0BAFAED
:105720001CE016480078012809D11348FAF799FDC2
:1057300084B2224610490020FCF790FF0EE00F488B
:10574000007802280AD14FF47A710D48FAF76CFDFF
:1057500009490B48FFF75AFDFCF774F86421064825
:10576000FAF762FD1AB010BD61010020600100204F
:1057700075000020BA220020562200205C01002083
:10578000A819002010B59AB01C480078002832D023
:1057900000201A490870642219491A48FAF72BFDAB
:1057A0001848FDF7D3FF50B1642101A8FAF73CFD7A
:1057B00001A8FDF7F3FF01A800F06CFA17E012480A
:1057C0000078012809D10F48FAF74BFD84B2224630
:1057D0000C490020FCF742FF09E00B480078022842
:1057E00005D108490948FFF711FDFCF72BF83221D4
:1057F0000448FAF719FD1AB010BD00006900002036
:105800001C170020801700205C010020A819002030
:1058100010B5002211463420FEF758FC40F2046017
:10582000FFF734FC40F20560FFF730FC40F21370E4
:10583000FFF72CFC4FF48063032218211C48FEF76D
:1058400034FB4FF40063032204211948FEF72DFBBB
:105850000223032210211748FEF727FB02211548D7
:10586000FEF71FFB144800F0ABF84FF4E13112488B
:1058700000F054F80421104800F02FF900210E48E0
:1058800000F033F900210C4800F03FF900210A48EC
:1058900000F01BF90821084800F02FF9064800F035
:1058A000D7F840F20531044800F0E6F810BD0000DA
:1058B0000010014000140140004C004070B5044647
:1058C00000250CB1206800B970BDA168206845189A
:1058D0002846FAF7C6FCA1680844A06000BFF3E7B9
:1058E00010B504460BE021780B4800F064F800BFC7
:1058F0000721094800F0B1F80028F9D0641C20788D
:105900000028F0D100BF0621034800F0A6F80028C7
:10591000F9D0002010BD0000004800402DE9F047FC
:1059200004460D460027B846B94600261D49601AB0
:105930008C421CD006DC1C48204470B1B0F5806F4E
:105940001FD10FE0B0F5806F16D0B0F56C4F18D1B5
:105950000320FFF7CBFA074614E00220FFF7C6FA50
:1059600007460FE00220FFF7C1FA07460AE00220CF
:10597000FFF7BCFA074605E00220FFF7B7FA074633
:1059800000E000BF00BF07EB5500B0FBF5F64FF697
:10599000F07006EA000806F00F0948EA0900A06066
:1059A000BDE8F087004C004000BCFFBF01464868DE
:1059B000C0F308007047C1F308024260704700005E
:1059C00010B504462049601A8C4228D006DC1F48D6
:1059D000204490B1B0F5806F33D117E0B0F5806FFF
:1059E00026D0B0F56C4F2CD140F20E30FFF76EFB95
:1059F00040F20E30FFF75AFB24E040F21140FFF76F
:105A000065FB40F21140FFF751FB1BE040F21240F2
:105A1000FFF75CFB40F21240FFF748FB12E040F258
:105A20001340FFF753FB40F21340FFF73FFB09E041
:105A300040F21440FFF74AFB40F21440FFF736FBF8
:105A400000E000BF00BF10BD004C004000BCFFBF25
:105A5000C16841F40051C160704710B5024602EBC5
:105A60009110006801F01F040123A340184008B101
:105A7000012010BD0020FCE710B500EB9112126868
:105A800001F01F040123A3401A4300EB91131A6095
:105A900010BD70B5024600230024C1F389101058D0
:105AA00001F01F060125B54000EA050302EB915005
:105AB0000068C1F304460125B54000EA050414B1AD
:105AC0000BB1012070BD0020FCE7C26822F4C06267
:105AD000C260C2680A43C26070470A460021C168BA
